:10740000E0E0F0E0859194910196089520E82093C2
:1074100061001092610081E085BF82E085BF81EF4D
:1074200085B987EE84B91DB8769A10BA81EF81BB11
:1074300084E68BB984EF8AB980E58CBD81E08DBD8F
:10744000089580EE8BB98BEA55D0109289008AEFAF
:107450008093880082E080936F0083E080938100B6
:10746000E7E0F1E05CD0E331E9F7A7E2B4E0E6E180
:10747000F1E003E010E101900D921A95E1F7A059B7
:10748000BF4F0A95B9F753D081E08093D7008AE4C3
:1074900082BF1092D8001092E2001092DA0010928F
:1074A000E10080E808D019BC1EBA1092E00072D446
:1074B00089E05ED481E98093D8000895F201F999BA
:1074C000FECFF2BDE1BD0895F9DFF89A80B508C09E
:1074D000F5DF1FBA80BD0FB6F894FA9AF99A0FBE7D
:1074E00031962F01089590E81BD08D939A95E1F77E
:1074F000089586E008D010C083E005D08F2F10D00B
:107500008E2F0ED080E05E9A5A980AC005D085E092
:10751000FADF06D080FDFDCF5A9A5E9808958191DA
:107520008EBD8DB5000087FFFCCF8EB50895EFEEC0
:10753000F2E090EB5C98892FF3DF80E1F1DF5C9A59
:10754000EEDF8FEE8E278F77D9F79395983B91F7E3
:107550000895EDEDF1E08191908101969083829301
:10756000092E0AF400940091DB0106FB5EF0009600
:10757000929111F493959083000C081620F42E9AA2
:107580002F9A2D9A08950895E4EDF1E097819923BB
:10759000EAF08FB18095817F669B88601C9B846038
:1075A0009581891310C09681992381F49381891361
:1075B00006C09481992396E959F080E00AC083833C
:1075C0009095892304C085839AE0968380E09FEF9D
:1075D0009483828308955C98E3E1F1E0A0DFE331D6
:1075E000E9F7CDDF80E083BF80E28093D80081E0BF
:1075F0008093E000F89485E083BF7894889580912B
:10760000DB0186FFBCDF22243324E4EDF1E01086A9
:1076100011861286EFEEF1E08091D60187FD1BC046
:1076200084FD32C082FF0895C685CC23E1F3F8942F
:1076300028980088F785E02D5FDFE0E0F0E0AFEE0E
:10764000B1E051DFAFEEB1E039D3E058FF4FCA955A
:10765000B1F762DFC4C18301222F6090F8017090FE
:10766000F70148D019F48823C1F708953801882418
:1076700041D0F1F58091F601821709F48301609001
:10768000FA017090F901F4CF6090FA017090F9015D
:1076900031D091F48823C1F708959FEF85FD0AC08A
:1076A00086FD07C080FD97CF83FF0895A9DEE9F32B
:1076B00096C191E097FB890E6624772483012227E7
:1076C00019D0B1F4882389F38091F60136F0881639
:1076D00050F4821730F0213003C0881520F42817A9
:1076E00010F48301282F6090FA017090F901E8CF1F
:1076F0003801822EF30100DFAFEEB1E0F4DECFEE11
:10770000D1E0E0E0F1E097E009908191081621F4E2
:107710009A95D1F708808010FFCEC9E0E4DECA95C3
:0A772000E9F7FADE04DF8827089578
:10772A0041524455424F59D5F08D14A1C881CFD941
:10773A00F1AF00AE8D100000FFFFCFCFFFFFFFFFBC
:10774A00CFCFFFFF0000FE067E7E06FE4656561687
:10775A00FE0656461EFE3F61E9E3FFE3EBE3FFE365
:10776A00EBE3FFE16B3F1201100102000008412325
:10777A00360001000201000109023E0002010080F8
:10778A00320904000001020201000524001001046C
:10779A002402040524060001070582030800FF09E4
:1077AA00040100020A000000070504021000010794
:1077BA000583021000010403090422034100720038
:1077CA006400750069006E006F0020004C006500BF
:1077DA006F006E006100720064006F0018034100C0
:1077EA0072006400750069006E006F0020004C0092
:0477FA004C004300FC
:1078000011241FBE8DEF9AE09EBF8DBF04B714BE3A
:1078100088E18093600010926000409100085091D0
:1078200001086F917F91A6C00F928F939F931F9233
:107830000FB60F9211244F936F938091DA0080FF5F
:107840004CC038C00F920FB68F939F93EF93FF9366
:1078500088278093850080938400E4EDF1E0978190
:10786000907261F490818917980B908309F45D9A66
:1078700091818917980B918309F4289A96819150E8
:1078800008F096839481915008F09483881639F417
:107890007C9B05C0B5DD19F0C10101961C01FF916B
:1078A000EF915CC080E189BD82E189BD09B400FE31
:1078B000FDCF08958091D80080FF0FC08091DA003D
:1078C0008E7F8093DA008091D90080FF04C0EADFC8
:1078D00081E08EBB02C019BC1EBA8091E10080FF1E
:1078E0000BC040D280FF08C040D28091D800806297
:1078F000E2DD19BC85E08EBB8091E10084FF1AC0F7
:1079000031D284FF17C0CEDF8091D8008F7DD3DDC8
:107910008FEE2AD027D28F7E81602AD28091DF011C
:10792000882331F48091E30087FD02C081E001C02B
:1079300084E08EBB8091E10083FF0CC013D283FFF3
:1079400009C087EF11D082E08EBB1092DF010BD00F
:107950000CD220D26F914F910F901F909F918F91D9
:107960000FBE0F9018958EEF0090E1000822009254
:10797000E10008954BDDA0E0B1E0EAE2F7E7059011
:107980000D92A43DE1F71D92BB30E9F701FD0FC058
:1079900000FF03C07C9B0BC008C003FF08C06757F3
:1079A000774729F04757574711F02ADDC1F449DDE1
:1079B00022243324310188249DDE78944BD00ED3C9
:1079C000E3DD6BDE811411F01ADEF8CFC2DD8091A9
:1079D000D60182FD00CEC101805B964378F3F89416
:1079E00089EB88DD81E08093E00010926F001092B7
:1079F0008100109285001092840081E085BF15BE41
:107A0000BEDD5D9A289A0C940000A7D107C054D11E
:107A100002C0E1D239F0A3D182FFFBCF85FFF7CFBF
:107A20008091F1000895082E83E098D185FD07C06C
:107A30008DD102C0D0D269F092D180FFFBCF0092ED
:107A4000F1008091DB0185FB26F05D9884E6809350
:107A5000D401089582D182FF4AC18091DB0185FB68
:107A600026F0289884E68093D501CFDF182F85343F
:107A700031F48CEB94E31C0121DD8DE008C18435E9
:107A800011F4C3DFFACF8C34C1F38035B1F38437FE
:107A900021F484E4C8DF80E0FAC0813611F489E57E
:107AA000F6C0813429F4B1DF582EAFDF482EE5CF80
:107AB000803711F483E5EBC0833539F4C0E0D1E0C1
:107AC0008991B1DFC730E1F7E3C0863521F481E366
:107AD000AADF84E3DCC0863761F481E3669B8E5FB6
:107AE0001C9B8F5FA0DF8FB1809582958F708F5B1D
:107AF000CEC08837A9F489DF8093DB01289A84FD02
:107B000028985D9A83FD5D982E9A81FD2E982F9A74
:107B100082FD2F982D9A80FD2D9887FD8824ADCF6A
:107B20008A3649F48FE9EFDCC3E0FADC7CDFCA95E2
:107B3000E1F7F2DCADC0833731F487E874DF85E923
:107B400072DF8EE1A4C0853639F4E0E8F3E7C7D0F0
:107B5000E058F040E0F791CF823631F489E563DFF9
:107B600080E061DF80E893C0823419F0873609F045
:107B70007AC02224332449DFD82F47DFC82F45DFBE
:107B8000082F8354843008F081C0063411F4440C6B
:107B9000551CF20110926F001736A1F4033471F4F2
:107BA00083E0ABDCBDDC3FDF2197E1F7B5DC08C04B
:107BB000063411F4859101C087DC35DF2197C2F7C7
:107BC0002F0149C00334A1F48E2F8F7021F491DC72
:107BD00080E293DC9BDC8DDC82E08FDC16DFA0DCB6
:107BE000CA95E1F793DC3196DA9571F72F0131C030
:107BF0000634F1F49F01F437D8F471D019C005DFD1
:107C0000063461F4C0FB46F0F43728F4182E81E006
:107C100087BFE89511243296082E0AC0043439F43F
:107C2000DF01B370A151BD4F8D93319601C050DC7F
:107C300021972AF7043431F42F01F370FE2B49F415
:107C400076DC07C0063429F42F01F901F43708F473
:107C500044D08DE0E8DE063411F45694479482E077
:107C600080936F0015C08237E1E049F08634E0E090
:107C700031F08E34E3E019F0813531F4E2E0F0E0E8
:107C800089E087BF849103C08B3111F08FE3CBDE95
:107C900083E0B1D15BD095FF03C009C09CD139F11D
:107CA0005ED080FFFBCF52D002C095D101F157D0FA
:107CB00080FFFBCF84E09FD18BE749C0F437B8F455
:107CC0000ED090E40D901D9081E087BFE89532962C
:107CD0009A95C1F71124E058F04085E001C083E097
:107CE00001D081E187BFE89507B600FCFDCF08957C
:107CF0009091E7018091E801913231F0913A61F57C
:107D0000813251F538D087C0803231F534D063D11B
:107D1000E9F08530D9F023D083FD18C082FFF7CF7A
:107D200004C07EDE8193615031F09091F300809128
:107D3000F200892BB1F7C0DF611549F704C04BD1C0
:107D400029F0853019F00BD080FFF9CF8EE79091A4
:107D5000E80089238093E800089584E04CD1809165
:107D6000E80008958091E2000895FCDF8E7F806135
:107D70008093E20008952DD1E0EEF1E067E00895F0
:107D800082E061EC09D083E061E802D084E060E841
:107D900042E103C080E060E042E02DD181E007D005
:107DA0001092ED006093EC004093ED0008959091E7
:107DB000EB00892B8093EB00089560E0923039F05E
:107DC000933041F0913099F4E6E462E110C0E8E5C7
:107DD0006EE30DC0813018F4E6E964E008C019F4E0
:107DE000EAE962E204C0823011F4ECEB68E1F1E010
:107DF00008958091E70188234CF402C0ECD051F043
:107E0000AEDF82FFFBCF58CFE6D021F0A8DF80FFA6
:107E1000FBCF9CDF08954091ED015091EE01461794
:107E2000510510F490E028C0611511F0462FFACFEB
:107E30008DDF40E0F7CFCFD059F1853049F18FDFAA
:107E400083FD3ACF8CDF82FD20C080FF15C03091CA
:107E5000F3002091F20005C081918093F100415020
:107E60002F5F411519F028303105B0F350E028306C
:107E7000310509F451E06ADF4115E9F65523D9F6D9
:107E800004C0A9D029F0853019F069DF82FFF9CF4D
:107E900013CFE7EEF1E0C4DD8193EF3EE1F728DF99
:107EA0005EDF83FF91C08091E7019091E8019130FE
:107EB00009F170F09330F1F0953009F444C0963038
:107EC00009F456C0983009F460C0993059F767C07A
:107ED000823841F78091EB018DD02091EB00109218
:107EE000E90077D02295269521702093F100109219
:107EF000F10052C0882311F08230A1F68F718230D8
:107F000089F68091E9018823D1F42091EB01277053
:107F100049F22093E9008091EB0080FF10C093307C
:107F200011F480E20BC080E142DF81E0880F2A95E6
:107F3000E9F78093EA001092EA0088E038DF1092B7
:107F4000E90047D02AC0882391F41091E901106814
:107F50000FB7F8943ED04DDF02DF80FFFDCF1093C6
:107F6000E300103883E009F482E08EBB0FBF2CC021
:107F70008058823048F58091E9019091EA011DDF37
:107F8000603011F126D047DF1FC08038E9F421D0DE
:107F90008091DF018093F100D9DE2BDF15C08823AB
:107FA00099F49091E901923078F49093DF0111D027
:107FB00020DF8091DF01882321F48091E30091E0AC
:107FC00087FD94E09EBBDCDECADE83FF089580E27D
:107FD000EEDE87EFBCCE8EB388230895FCDF69F018
:107FE0008091E9008F931092E900B9DE83FF01C010
:0C7FF00050DF8F9187708093E9000895A6
:047FFC005FCEFBDC7D
:040000030000740085
:00000001FF
